{
  "contractName": "voteCampaign",
  "abi": [
    {
      "anonymous": false,
      "inputs": [
        {
          "indexed": true,
          "internalType": "address",
          "name": "voterAdress",
          "type": "address"
        },
        {
          "indexed": true,
          "internalType": "address",
          "name": "candiateAdress",
          "type": "address"
        }
      ],
      "name": "Vote",
      "type": "event"
    },
    {
      "inputs": [
        {
          "internalType": "address",
          "name": "",
          "type": "address"
        }
      ],
      "name": "ballot",
      "outputs": [
        {
          "internalType": "uint256",
          "name": "",
          "type": "uint256"
        }
      ],
      "stateMutability": "view",
      "type": "function",
      "constant": true
    },
    {
      "inputs": [
        {
          "internalType": "address",
          "name": "candiateAdress",
          "type": "address"
        }
      ],
      "name": "vote",
      "outputs": [],
      "stateMutability": "nonpayable",
      "type": "function"
    }
  ],
  "bytecode": "0x608060405234801561001057600080fd5b506102c1806100206000396000f3fe608060405234801561001057600080fd5b50600436106100365760003560e01c80634edeb6161461003b5780636dd7d8ea1461006b575b600080fd5b610055600480360381019061005091906101b3565b610087565b60405161006291906101f9565b60405180910390f35b610085600480360381019061008091906101b3565b61009f565b005b60006020528060005260406000206000915090505481565b6000808273ffffffffffffffffffffffffffffffffffffffff1673ffffffffffffffffffffffffffffffffffffffff16815260200190815260200160002060008154809291906100ee90610243565b91905055508073ffffffffffffffffffffffffffffffffffffffff163373ffffffffffffffffffffffffffffffffffffffff167fa54b4b55bf59d86099f37de5d683b7e560a961171658f51a65b6de1d0d31ccd660405160405180910390a350565b600080fd5b600073ffffffffffffffffffffffffffffffffffffffff82169050919050565b600061018082610155565b9050919050565b61019081610175565b811461019b57600080fd5b50565b6000813590506101ad81610187565b92915050565b6000602082840312156101c9576101c8610150565b5b60006101d78482850161019e565b91505092915050565b6000819050919050565b6101f3816101e0565b82525050565b600060208201905061020e60008301846101ea565b92915050565b7f4e487b7100000000000000000000000000000000000000000000000000000000600052601160045260246000fd5b600061024e826101e0565b91507fffffffffffffffffffffffffffffffffffffffffffffffffffffffffffffffff82036102805761027f610214565b5b60018201905091905056fea26469706673582212201d7ba5636d66183e9e14ca5b3a6ccce62fd1d4854c54513eb09f7b7259180e3e64736f6c634300080d0033",
  "immutableReferences": {},
  "source": "// SPDX-License-Identifier: MIT\n// Tells the Solidity compiler to compile only from v0.8.13 to v0.9.0\npragma solidity ^0.8.13;\n\nimport \"./ConvertLib.sol\";\n\n// This is just a simple example of a coin-like contract.\n// It is not ERC20 compatible and cannot be expected to talk to other\n// coin/token contracts.\n\ncontract voteCampaign{\n\n    mapping(address => uint) public ballot;\n\n    event Vote(address indexed voterAdress, address indexed candiateAdress);\n\n    function vote(address candiateAdress) public{\n        ballot[candiateAdress]++;\n        emit Vote(msg.sender, candiateAdress);\n    }\n}\n",
  "sourcePath": "D:\\学习\\申研\\汉堡工大\\注册完成\\courses\\Advanced Internet Computing\\Truffle\\contracts\\VoteCampaign.sol",
  "compiler": {
    "name": "solc",
    "version": "0.8.13+commit.abaa5c0e.Emscripten.clang"
  },
  "schemaVersion": "3.4.14",
  "updatedAt": "2023-06-11T22:03:07.665Z",
  "networkType": "ethereum",
  "devdoc": {
    "kind": "dev",
    "methods": {},
    "version": 1
  },
  "userdoc": {
    "kind": "user",
    "methods": {},
    "version": 1
  }
}